:03000000020100FA
:1001000074381201E7740C1201E774011201E774EC
:10011000061201E774821201E774541201F6744565
:100120001201F6744D1201F674501201F674451264
:1001300001F674521201F674411201F67454120160
:10014000F674551201F674521201F674451201F656
:10015000743A1201F674CA1201E774DF1201F674E0
:10016000431201F67590FF74C41201E7C2B0C2B227
:10017000D2B2D2B020B3FDC2B0C2B1E590F580D208
:10018000B1D2B075F03DA4ACF0FD7850796031B1DA
:10019000AC50E551C44552FD785009F7EC70EFEDD5
:1001A000C3940A50E931D1756400756300510E8023
:1001B000B6EC75F00A7B0384F608A7F0E7C4FAED05
:1001C00075F01084BB0202E5F04A75F00AC3DBE764
:1001D0002278647F05E624301201F618BF03057407
:1001E0002E1201F6DFEF22F5A0C2B4C2B5D2B6518D
:1001F00005C2B6510522F5A0D2B4C2B5D2B651059A
:10020000C2B65105227B0A7C1EDCFEDBFA227D147D
:0B0210007CFA7BFADBFEDCFADDF62254
:00000001FF
