:03000000020100FA
:1001000074381201E9740C1201E974011201E974E6
:10011000061201E974801201E974541201F6744563
:100120001201F6744D1201F674501201F674451264
:1001300001F674521201F674411201F67454120160
:10014000F674551201F674521201F674451201F656
:10015000743A1201F6742D1201F674C81201E97492
:10016000DF1201F674431201F67590FF74C212019A
:10017000E9C2B0C2B2D2B2D2B020B3FDC2B0C2B1F5
:1001800000E590D2B1D2B075F03BA4ACF0FD785050
:10019000796031B3AC50E551C44552FD785009F750
:1001A000EC70EFEDC3940A50E931D37564007563C8
:1001B0000080B9EC75F00A7B0384F608A7F0E7C469
:1001C000FAED75F01084BB0202E5F04A75F00AC33F
:1001D000DBE72278647F05E624301201F618BF03BE
:1001E00005742E1201F6DFEF225103F5A0C2B4C24E
:1001F000B5D2B6C2B6225103F5A0D2B4C2B5D2B6BA
:0C020000C2B6227B0A7C1EDCFEDBFA2268
:00000001FF
